:020000040800F2
:1000000000000220551800087D0400087F04000845
:100010008104000883040008850400080000000033
:10002000000000000000000000000000870400083D
:1000300089040008000000008B0400088D040008FB
:10004000A5180008A5180008A5180008A51800089C
:10005000A5180008A5180008A5180008A51800088C
:10006000A5180008A5180008A5180008A51800087C
:10007000A5180008A5180008A5180008A51800086C
:10008000A5180008A5180008A5180008A51800085C
:10009000A5180008A5180008A5180008A51800084C
:1000A000A5180008A5180008A5180008A51800083C
:1000B000A5180008A5180008A5180008A51800082C
:1000C000A5180008A5180008A5180008A51800081C
:1000D000A5180008A5180008A5180008A51800080C
:1000E000A5180008A5180008A5180008A5180008FC
:1000F000A5180008A5180008A5180008A5180008EC
:10010000A5180008A5180008A5180008A5180008DB
:10011000A5180008A5180008A5180008A5180008CB
:10012000A5180008A5180008A5180008A5180008BB
:10013000A51800080000000000000000A518000835
:10014000A5180008A5180008A5180008A51800089B
:10015000A5180008A5180008A5180008A51800088B
:10016000A5180008A5180008A5180008A51800087B
:10017000A5180008A5180008A51800080000000030
:1001800000000000A51800080000000000000000AA
:10019000A51800080000000000000000A5180008D5
:1001A000000000000000000000000000A51800088A
:1001B000A5180008A5180008A5180008A51800082B
:0401C000A518000876
:1001C40053B94AB9002908BF00281CBF4FF0FF31BA
:1001D4004FF0FF3000F00CB8ADF1080C6DE904CE1F
:1001E40001F08CFBDDF804E0DDE9022304B0704784
:1001F400704700BF10B5054C227832B9044B13B1D7
:100204000448AFF300800123237010BD0C000020CC
:1002140000000000AC1B000808B5034B1BB10349E8
:100224000348AFF3008008BD000000001000002068
:10023400AC1B000800B58BB000220792089209920B
:1002440001921A4B196B41F004011963196B01F007
:100254000401019101990292196B41F08001196323
:10026400196B01F08001029102990392196B41F01C
:1002740001011963196B01F00101039103990492BF
:100284001A6B42F002021A631B6B03F0020304931D
:10029400049B4FF400530593054B069305A90548A9
:1002A40000F072FD0BB05DF804FB00BF00380240A3
:1002B400000021100008024008B50848084B0360FC
:1002C4004FF4E133436000238360C36003610C2275
:1002D40042618361C36101F07DFA08BDC000002062
:1002E4000044004008B50B480B4B03604FF4827385
:1002F400436000238360C360036143614FF4007271
:100304008261C3610362436283620A23C36200F0B1
:1003140085F908BD680000200030014030B597B071
:100324000024119412941394149415940F9410941B
:10033400089409940A940B940C940D940E9420221E
:100344002146684601F0D2FA1D4D1E4B2B606C60AD
:10035400AC60EC602C616C61AC61284600F0C0FFBD
:10036400284600F0D7FF07231193702312931394A8
:100374001494159411A9284601F0A0F80F94109430
:100384000FA9284601F0C4F8089409940A940B9420
:100394000C940D940E94224608A9284601F00CF8FA
:1003A400009401940294039404944FF4005305932D
:1003B40007946946284601F0EFF817B030BD00BF36
:1003C400280000200000014030B595B034220021FF
:1003D40007A801F08BFA0024029403940494059472
:1003E400069400941B4B1A6C42F080521A641B6CE6
:1003F40003F080530093009B0194174A136823F47D
:10040400404343F480431360136803F4404301936F
:10041400019B0225079501230A9310230B930D9545
:100424000E940F934FF4A873109304231193129511
:10043400139507A800F0C4FA0F23029303950494BC
:100444004FF4805305930694294602A800F026F938
:1004540015B030BD003802400070004008B500F00F
:10046400F5FDFFF7B1FFFFF7E5FEFFF725FFFFF707
:1004740039FFFFF753FFFEE77047FEE7FEE7FEE7AD
:10048400FEE770477047704708B500F0F9FD08BDF6
:1004940000B583B0002100910C4B5A6C42F48042A9
:1004A4005A645A6C02F480420092009A01911A6CC8
:1004B40042F080521A641B6C03F080530193019B39
:1004C400072000F041FD03B05DF804FB0038024052
:1004D40000B589B00023039304930593069307930F
:1004E4000268154B9A4202D009B05DF804FB002162
:1004F400019103F584335A6C42F480525A645A6C65
:1005040002F480520192019A02911A6B42F00102A4
:100514001A631B6B03F001030293029BA023039352
:1005240002230493032306930523079303A9034893
:1005340000F02AFCD8E700BF003001400000024070
:1005440000B589B00023039304930593069307939E
:100554000268144B9A4202D009B05DF804FB0021F2
:10056400019103F59C335A6C42F001025A645A6CAF
:1005740002F001020192019A02911A6B42F0010207
:100584001A631B6B03F001030293029B4FF4805325
:100594000393022304930123079303A9024800F061
:1005A400F3FBD9E7000001400000024000B589B028
:1005B4000023039304930593069307930268154B52
:1005C4009A4202D009B05DF804FB0021019103F5C1
:1005D400FA331A6C42F400321A641A6C02F40032D0
:1005E4000192019A02911A6B42F001021A631B6B89
:1005F40003F001030293029B0C230393022304934D
:10060400032306930723079303A9034800F0BCFBC5
:10061400D8E700BF004400400000024000283BD05F
:1006240010B504460023836290F85130002B2ED07D
:10063400022384F851302268136823F040031360C6
:100644006368A2681343E26813432269134362692F
:100654001343A26902F400721343E2691343226A4A
:100664001343A16A22680B431360638B03F00403F2
:10067400616A22680B4353602268D36923F40063E0
:10068400D36100206065012384F8513010BD80F8E7
:100694005030FFF71DFFCBE701207047002800F022
:1006A4009B8070B50D4604464F4B1B6803F00F0347
:1006B4008B4208D2CBB24C4A1370136803F00F0379
:1006C4008B4240F08B80236813F0020F17D013F095
:1006D400040F04D0454A936843F4E05393602368BD
:1006E40013F0080F04D0414A936843F460439360C5
:1006F4003E4A936823F0F003A1680B439360236898
:1007040013F0010F32D06368012B21D09A1E012A05
:1007140025D9364A126812F0020F61D033498A682B
:1007240022F0030213438B6000F0B6FC06462F4B05
:100734009B6803F00C036268B3EB820F16D000F0E1
:10074400ABFC801B41F288339842F0D9032042E08D
:10075400264A126812F4003FE0D101203BE0234A0C
:10076400126812F0007FD9D1012034E01E4B1B68BF
:1007740003F00F03AB4207D9EAB21B4B1A701B6894
:1007840003F00F03AB422DD1236813F0040F06D0FE
:10079400164A936823F4E053E1680B43936023689B
:1007A40013F0080F07D0114A936823F460432169BA
:1007B40043EAC103936000F047F80C4B9B68C3F312
:1007C40003130B4AD35CD8400A4B18600A4B1868D1
:1007D40000F016FC002070BD012070470120FAE7EC
:1007E4000120F8E70120F6E7003C0240003802400F
:1007F400C41B00080800002004000020014B1868F6
:10080400704700BF0800002008B5FFF7F7FF044B4E
:100814009B68C3F38223034AD35CD84008BD00BF5E
:1008240000380240D41B000808B5FFF7E7FF044B6B
:100834009B68C3F34233034AD35CD84008BD00BF6E
:1008440000380240D41B00082DE9F843594B9B683B
:1008540003F00C03082B08D00C2B5BD0042B02D024
:100864005548BDE8F8835548FBE7524B5A6802F0F7
:100874003F025B6813F4800F2BD04E4B5B68C3F3CD
:10088400881358010021C01A61F100018C0144EA67
:1008940090648501B5EB000864EB01094FEAC901D6
:1008A40041EA58714FEAC800C01841F100014B02F7
:1008B40043EAD0534402204619460023FFF780FC44
:1008C4003C4B5B68C3F3014301335B00B0FBF3F0C3
:1008D400C7E7384B5B68C3F3881358010021C01A7B
:1008E40061F100018C0144EA906485012E1A64EBE5
:1008F4000107F90041EA5671F000C01841F1000106
:100904008B0243EA90538402204619460023FFF7E2
:1009140057FCD5E7274B5A6802F03F025B6813F493
:10092400800F26D0234B5B68C3F388135801002142
:10093400C01A61F100018E0146EA906687013C1AF3
:1009440066EB0105E90041EA5471E000C01841F189
:1009540000014B0243EAD0534402204619460023C7
:10096400FFF72EFC134B5B68C3F30273B0FBF3F089
:1009740077E7104B5B68C3F388135C010025E41A26
:1009840065F10005AE0146EA9466A701381B66EBE3
:100994000501CC0044EA5074C500E81844F1000194
:1009A4008B0243EA90538402204619460023FFF742
:1009B40007FCD7E7003802400024F40000127A0054
:1009C40070B582B00446036813F0010F41D0A64B02
:1009D4009B6803F00C03042B32D0A34B9B6803F0F9
:1009E4000C03082B27D0A04B9B6803F00C030C2BA3
:1009F40059D06368B3F5803F5BD0B3F5A02F5ED0C8
:100A0400994B1A6822F480321A601A6822F4802200
:100A14001A606368002B5CD000F03EFB0546924BE5
:100A24001B6813F4003F14D100F036FB401B64280C
:100A3400F5D903209FE18C4B5B6813F4800FD2D06F
:100A4400894B1B6813F4003F03D06368002B00F04C
:100A54008D81236813F0020F60D0834B9B6813F0E1
:100A64000C0F4AD0804B9B6803F00C03082B3FD03B
:100A74007D4B9B6803F00C030C2B68D0E368002BC0
:100A840074D07A4B01221A6000F006FB0546764BBF
:100A94001B6813F0020F60D100F0FEFA401B02281D
:100AA400F5D9032067E1704B5B6813F4800FA0D085
:100AB400C6E76D4A136843F480331360A9E76A4BB1
:100AC4001A6842F480221A601A6842F480321A606A
:100AD4009FE700F0E1FA0546634B1B6813F4003FFF
:100AE400B7D000F0D9FA401B6428F5D9032042E1BD
:100AF4005D4B5B6813F4800FBAD15B4B1B6813F03A
:100B0400020F03D0E368012B40F03281564A136888
:100B140023F0F803216943EAC1031360236813F047
:100B2400080F47D06369002B32D0514B01221A6061
:100B340000F0B2FA05464C4B5B6F13F0020F39D14B
:100B440000F0AAFA401B0228F5D9032013E1464B12
:100B54005B6813F4800F91D1CFE7434A136823F005
:100B6400F803216943EAC1031360D7E73F4B00222E
:100B74001A6000F091FA05463B4B1B6813F0020F14
:100B8400CCD000F089FA401B0228F5D90320F2E00A
:100B9400374B00221A6000F07FFA0546324B5B6F38
:100BA40013F0020F06D000F077FA401B0228F5D9A3
:100BB4000320E0E0236813F0040F79D02A4B1B6C68
:100BC40013F0805F0DD100230193274B1A6C42F080
:100BD40080521A641B6C03F080530193019B01251E
:100BE40000E00025234B1B6813F4807F21D0A36809
:100BF400012B32D0052B3FD01B4B1A6F22F0010280
:100C04001A671A6F22F004021A67A368002B3DD0FA
:100C140000F042FA0646144B1B6F13F0020F46D144
:100C240000F03AFA801B41F288339842F3D903204A
:100C3400A1E0104A136843F48073136000F02CFAA7
:100C440006460C4B1B6813F4807FD0D100F024FAC5
:100C5400801B0228F5D903208DE0034A136F43F06B
:100C640001031367D1E700BF003802400000474288
:100C7400800E474200700040414B1A6F42F004025C
:100C84001A671A6F42F001021A67BEE700F004FA0D
:100C940006463B4B1B6F13F0020F08D000F0FCF923
:100CA400801B41F288339842F3D9032063E0E5B90D
:100CB400A369002B5ED0324A926802F00C02082A23
:100CC4005BD0022B17D02F4B00221A6000F0E4F9FE
:100CD40004462B4B1B6813F0007F45D000F0DCF971
:100CE400001B0228F5D9032045E0254A136C23F0A4
:100CF40080531364DCE7234B00221A6000F0CCF924
:100D040005461F4B1B6813F0007F06D000F0C4F9A2
:100D1400401B0228F5D903202DE0E369226A13431E
:100D2400626A43EA8213A26A5208013A43EA02431E
:100D3400E26A43EA0263226B43EA0273104A536095
:100D4400104B01221A6000F0A7F904460C4B1B68F3
:100D540013F0007F06D100F09FF9001B0228F5D99B
:100D6400032008E0002006E0002004E0012002E067
:100D7400012000E0002002B070BD0120FBE700BFAD
:100D8400003802406000474200230F2B00F2D3805A
:100D9400F0B583B039E0062200E00022B2403A43C5
:100DA4000234654E46F82420644A1468EA4324EA6F
:100DB40005064F6817F4803F01D045EA04065F4CEE
:100DC4002660646802EA04064F6817F4003F01D005
:100DD40045EA0406594C6660A46802EA04064F68B2
:100DE40017F4801F01D045EA0406544CA660E46859
:100DF40022404E6816F4001F01D045EA04024F4C0D
:100E0400E26001330F2B00F2948001229A400C68B7
:100E140004EA020532EA0404F3D14C68661E012E8A
:100E240003D9112C01D0122C12D186685F0003243F
:100E3400BC4026EA0406CC68BC403443846046685F
:100E440026EA02064C68C4F300129A403243426018
:100E5400C7685E000324B440E24327EA04078C68B1
:100E6400B4403C43C4604C68022C01D0122C13D112
:100E7400DF08083750F827E003F007044FEA840C32
:100E84000F2404FA0CF42EEA040E0C6904FA0CF490
:100E940044EA0E0440F82740046814404A6802F00B
:100EA4000302B240224302604A6812F0805FA8D075
:100EB40000220192224A546C44F480445464526CDB
:100EC40002F480420192019A9C08A61C1A4A52F824
:100ED400267003F0030296000F22B24027EA0207AD
:100EE400184A90423FF459AF02F58062904216D0FE
:100EF40002F58062904214D002F58062904212D0D2
:100F040002F58062904210D002F5806290420ED0C9
:100F140002F5806290423FF43EAF07223EE7012291
:100F24003CE702223AE7032238E7042236E70522A7
:100F340034E703B0F0BD704700380140003C014085
:100F44000038024000000240074AD36823F4E063FB
:100F54001B041B0C000200F4E060034343F0BF6376
:100F640043F40033D360704700ED00E030B4174B16
:100F7400DB68C3F30223C3F10704042C28BF042451
:100F84001D1D062D18D9033B4FF0FF3505FA04F457
:100F940021EA0401994005FA03F322EA0303194301
:100FA40000280BDB0901C9B200F1604000F5614083
:100FB40080F8001330BC70470023E5E700F00F0011
:100FC4000901C9B2024B1954F4E700BF00ED00E077
:100FD40014ED00E00138B0F1807F0AD2064B58606E
:100FE400064AF02182F823100020986007221A6034
:100FF40070470120704700BF10E000E000ED00E002
:1010040010B504460E4B18784FF47A73B3FBF0F323
:101014000C4A1068B0FBF3F0FFF7DCFF68B90F2C43
:1010240001D901200AE0002221464FF0FF30FFF7EA
:101034009DFF054B1C60002000E0012010BD00BF97
:1010440000000020080000200400002008B50B4B1D
:101054001A6842F400721A601A6842F480621A60D4
:101064001A6842F480721A600320FFF76DFF0020B3
:10107400FFF7C6FFFFF70CFA002008BD003C024052
:10108400034A1168034B1B780B441360704700BF7D
:101094000001002000000020014B1868704700BFC9
:1010A4000001002030B4036A23F001030362056ADF
:1010B4004268846924F073040B681C4325F002051C
:1010C4008B682B43104DA84203D005F58065A842D8
:1010D40005D123F00803CD682B4323F004030A4D04
:1010E400A84203D005F58065A84205D122F44072D8
:1010F4004D6915438A692A43426084614A684263A0
:10110400036230BC704700BF0000014030B4036A82
:1011140023F480730362036A4268C46924F073048D
:101124000D682C4323F400738D6843EA0523124DA4
:10113400A84203D005F58065A84206D123F40063D4
:10114400CD6843EA052323F480630B4DA84203D002
:1011540005F58065A84207D122F440524D6942EA60
:1011640005128D6942EA05124260C4614A68C2638D
:10117400036230BC704700BF0000014030B4036A12
:1011840023F480530362036A4468C26922F4E6428A
:101194000D6842EA052223F400538D6843EA0533BF
:1011A400094DA84203D005F58065A84204D124F472
:1011B40080444D6944EA85144460C2614A6802640B
:1011C400036230BC704700BF0000014030B4036AC2
:1011D400056A25F001050562846924F0F00444EAF7
:1011E400021423F00A030B438461036230BC70478A
:1011F40030B4056A25F0100505628469036A24F495
:10120400704444EA023423F0A00343EA01138461E6
:10121400036230BC704770470368304A904212D072
:10122400B0F1804F0FD0A2F57C4290420BD002F572
:101234008062904207D002F58062904203D002F5AA
:101244007842904203D123F070034A681343234A3F
:1012540090422AD0B0F1804F27D0A2F57C42904230
:1012640023D002F5806290421FD002F58062904242
:101274001BD002F57842904217D002F5705290428A
:1012840013D002F5806290420FD002F58062904242
:101294000BD0A2F59832904207D002F580629042BA
:1012A40003D002F58062904203D123F44073CA68EC
:1012B400134323F080034A69134303608B68C362BA
:1012C4000B688362054B984203D003F58063984210
:1012D40001D10B690363012343617047000001409E
:1012E400B0B110B5044690F83D3063B1022384F8E0
:1012F4003D30214651F8040BFFF78EFF012384F89B
:101304003D30002010BD80F83C30FFF719F9EDE7BF
:1013140001207047B0B110B5044690F83D3063B178
:10132400022384F83D30214651F8040BFFF774FF83
:10133400012384F83D30002010BD80F83C30FFF7D5
:101344006AFFEDE70120704730B4036A23F010030D
:101354000362036A4468826922F4E6420D6842EA41
:10136400052223F020038D6843EA0513114DA8429A
:1013740003D005F58065A84206D123F08003CD682B
:1013840043EA051323F040030A4DA84203D005F5B0
:101394008065A84207D124F440644D6944EA850479
:1013A4008D6944EA8504446082614A688263036209
:1013B40030BC70470000014090F83C30012B28D02D
:1013C40010B50446012380F83C30022380F83D30F8
:1013D4000C2A0BD8DFE802F0070A0A0A110A0A0AE3
:1013E400150A0A0A19000068FFF75CFE012384F855
:1013F4003D30002084F83C0010BD0068FFF7A4FFD6
:10140400F4E70068FFF782FEF0E70068FFF7B6FE36
:10141400ECE70220704710B4846824F47F4442EA65
:1014240003220A43224382605DF8044B704710B5DF
:101434000468A26822F070024B68134323F0070388
:101444000A681343A3604B68602B2CD00CD8402B44
:1014540014D0502B06D10A6989680068FFF7B6FEDC
:10146400002028E0002026E0702B23D10B698A6835
:10147400C9680068FFF7CFFF00201CE00B68052B4C
:101484001AD003681C6A1A6A22F001021A620268FE
:10149400936923F0F003096943EA01139361036834
:1014A4001C62002007E00A6989680068FFF7A0FE53
:1014B400002000E0002010BD0120FCE790F83C3043
:1014C400012B22D010B50446012380F83C300223BE
:1014D40080F83D30FFF7ABFF80B92268D36823F072
:1014E4004003D3602268D36823F48043D36001238C
:1014F40084F83D30002384F83C3010BD012084F88A
:101504003D00002384F83C30F7E7022070470000D8
:1015140090F83C30012B3BD030B4012380F83C30B0
:10152400022380F83D3003685C689D6824F07004F1
:101534000A6822435A600368164A93421AD0B3F1E8
:10154400804F17D0A2F57C42934213D002F58062FB
:1015540093420FD002F5806293420BD002F5784299
:10156400934207D002F57052934203D0A2F594320D
:10157400934204D125F080054A6815439D600123F8
:1015840080F83D30002380F83C30184630BC70476A
:10159400022070470000014090F83C30012B22D01B
:1015A400012380F83C30CB6823F440738A681343EA
:1015B40023F480634A68134323F400630A681343E3
:1015C40023F480530A69134323F400534A691343F1
:1015D40023F48043CA69134302685364002380F8E8
:1015E4003C301846704702207047000070B504462E
:1015F4000268136923F44053C1680B431361836881
:101604000269134342691343C2691A430168CB68F0
:1016140023F4164323F00C031343CB60026853698D
:1016240023F4407381690B435361C369B3F5004FDD
:1016340036D00368654A934200F09A8002F58062CE
:10164400934200F09580FFF7DFF80026051846EB7B
:1016540006012D1846EB0101CB0043EA5573EA005D
:101664001546194663689A009B0F281846EB01013A
:10167400FEF7A6FD564DA5FB00325109642303FB7A
:1016840011031B013233A5FB03235B0903F0F002B2
:1016940002EB011203F00F03216813448B6093E003
:1016A40003684A4A934233D002F5806293422FD0B2
:1016B400FFF7AAF80026051846EB06012D1846EB9D
:1016C4000101CB0043EA5573EA00154619466268E6
:1016D4003346921846EB0303281846EB0101FEF744
:1016E4006FFD3B4DA5FB00325109642303FB11033D
:1016F400DB003233A5FB03235B095A0002F4F872C2
:1017040002EB011203F00703216813448B605BE0D2
:10171400FFF78AF80026051846EB06012D1846EB5C
:101724000101CB0043EA5573EA0015461946626885
:101734003346921846EB0303281846EB0101FEF7E3
:101744003FFD234DA5FB00325109642303FB110324
:10175400DB003233A5FB03235B095A0002F4F87261
:1017640002EB011203F00703216813448B602BE0A2
:10177400FFF75AF80026051846EB06012D1846EB2C
:101784000101CB0043EA5573EA0015461946636824
:101794009A009B0F281846EB0101FEF711FD0C4D32
:1017A400A5FB00325109642303FB11031B013233EF
:1017B400A5FB03235B0903F0F00202EB011203F023
:1017C4000F03216813448B6070BD00BF00100140FB
:1017D4001F85EB5158B310B5044690F839300BB35C
:1017E400242384F839302268D36823F40053D36067
:1017F4002046FFF7FBFE2268136923F4904313612C
:101804002268536923F02A0353612268D36843F49E
:101814000053D3600020E063202384F8393084F837
:101824003A3010BD80F83830FEF7C0FED8E701200A
:1018340070470000054BD3F8882042F47002C3F8C7
:1018440088204FF000629A60704700BF00ED00E00E
:10185400DFF834D0002103E00C4B5B5843500431D3
:101864000B480C4B42189A42F6D30B4A02E0002371
:1018740042F8043B094B9A42F9D3FFF7DBFF00F02F
:1018840011F8FEF7EBFD704700000220EC1B000886
:10189400000000200C0000200C00002004010020A7
:1018A400FEE7000070B50D4D0D4C641BA41000261E
:1018B400A64209D10B4D0C4C00F076F9641BA41020
:1018C4000026A64205D170BD55F8043B9847013661
:1018D400EEE755F8043B98470136F2E7E41B0008AD
:1018E400E41B0008E41B0008E81B0008024403464C
:1018F400934200D1704703F8011BF9E72DE9F04F3B
:10190400099E8A468E46154604461946002B40F029
:10191400CA805245B2FA82F747D94FB1C7F12008BD
:101924000AFA07F320FA08F8BD4048EA030EBC405F
:101934004FEA15491FFA85F8BEFBF9FB220C09FB97
:101944001BE30BFB08FC42EA034AD44529D915EBF7
:101954000A0A0BF1FF3004D2D44502D9ABF10200DC
:10196400AA44AAEB0C0AA4B2BAFBF9F309FB13AA22
:1019740003FB08F844EA0A44A04514D92C1903F1DE
:10198400FF3203D2A04501D99A1E2C44A4EB0804CB
:1019940042EA00401EB1FC40002334607360BDE89D
:1019A400F08F5846DDE71A46F0E702B9FFDE9FBB29
:1019B400AAEB020301214FEA154CAAB2B3FBFCFEC9
:1019C400200C0CFB1E330EFB02F840EA034398453F
:1019D40065D9EB180EF1FF3004D2984502D9AEF167
:1019E40002002B44A3EB0803A4B2B3FBFCFE0CFBE4
:1019F4001E330EFB02F244EA0344A24251D92C19CD
:101A04000EF1FF3304D2A24202D9AEF102032C44F8
:101A1400A41A43EA0040BDE7C7F120082AFA08F9EE
:101A2400BD4020FA08F80AFA07F348EA03024FEA2D
:101A3400154CABB2B9FBFCFE110C0CFB1E900EFB5B
:101A440003F841EA0040804504FA07F423D9281832
:101A54000EF1FF3104D2804502D9AEF102012844CF
:101A6400A0EB080092B2B0FBFCFE0CFB1E000EFBC8
:101A740003F842EA004398450FD9EB180EF1FF3200
:101A840004D2984502D9AEF102022B44A3EB080319
:101A940042EA01418FE77146E2E77246F6E7704693
:101AA400A0E77346B4E7534505D90EB1C6E9000A69
:101AB4000021084673E7B3FA83F8B8F1000F10D198
:101AC400534501D382420AD8841A6AEB03030120E6
:101AD4009E46002E65D0C6E9004E00215FE74046D1
:101AE400F7E7C8F1200903FA08F322FA09F71F43BC
:101AF40020FA09F40AFA08F32AFA09F51C434FEA12
:101B0400174A02FA08FC00FA08FEB5FBFAF2BBB267
:101B14000AFB1250250C02FB03F145EA0045A942D9
:101B24003BD97D1902F1FF3003D2A94201D9901E9D
:101B34003D446D1AA4B2B5FBFAF20AFB12555343A5
:101B440044EA05418B422AD9791802F1FF3403D2C1
:101B54008B4201D9941E394444EA0040A0FB0C4551
:101B6400C91AA94223462A4602D306D1A64504D25D
:101B7400B4EB0C0365EB0702013896B1BEEB03042A
:101B840061EB020E0EFA09F924FA08F349EA030399
:101B94002EFA08F1C6E900319FE71046C9E714465A
:101BA400DAE73146FBE60000F8B500BFF8BC08BC34
:101BB4009E467047F8B500BFF8BC08BC9E46704707
:101BC40000000000000000000102030406070809E9
:081BD4000000000001020304FF
:081BDC0024FDFF7F0100000061
:041BE4001D020008D6
:041BE800F9010008F7
:0C1BEC0001000000100000000024F400C4
:040000050800185582
:00000001FF
